{
  "transactions": [
    {
      "hash": "0x961bd0b510665006b4448c7ec303f7911878afbe3bad5ef459fc9b165b19535d",
      "transactionType": "CALL",
      "contractName": null,
      "contractAddress": "0xbd216513d74c8cf14cf4747e6aaa6420ff64ee9e",
      "function": "modifyLiquidities(bytes,uint256)",
      "arguments": [
        "0x0000000000000000000000000000000000000000000000000000000000000040000000000000000000000000000000000000000000000000000000000000008000000000000000000000000000000000000000000000000000000000000000030212120000000000000000000000000000000000000000000000000000000000000000000000000000000000000000000000000000000000000000000000000300000000000000000000000000000000000000000000000000000000000000600000000000000000000000000000000000000000000000000000000000000220000000000000000000000000000000000000000000000000000000000000026000000000000000000000000000000000000000000000000000000000000001a00000000000000000000000009ed4f4724b521326a9d9d2420252440bd05556c4000000000000000000000000cb68357b50a5e759e9c530f172a8174efa1e350d00000000000000000000000000000000000000000000000000000000000001f400000000000000000000000000000000000000000000000000000000000000050000000000000000000000007e0c07eeabb2459d70dba5b8d100dca44c652ac00000000000000000000000000000000000000000000000000000000000001b1200000000000000000000000000000000000000000000000000000000000075080000000000000000000000000000000000000000000000000000001e66915cb300000000000000000000000000000000ffffffffffffffffffffffffffffffff00000000000000000000000000000000ffffffffffffffffffffffffffffffff000000000000000000000000f39fd6e51aad88f6f4ce6ab8827279cfffb922660000000000000000000000000000000000000000000000000000000000000180000000000000000000000000000000000000000000000000000000000000000000000000000000000000000000000000000000000000000000000000000000200000000000000000000000009ed4f4724b521326a9d9d2420252440bd05556c40000000000000000000000000000000000000000000000000000000000000020000000000000000000000000cb68357b50a5e759e9c530f172a8174efa1e350d",
        "1769999236"
      ],
      "transaction": {
        "from": "0xf39fd6e51aad88f6f4ce6ab8827279cfffb92266",
        "to": "0xbd216513d74c8cf14cf4747e6aaa6420ff64ee9e",
        "value": "0x0",
        "input": "0xdd46508f00000000000000000000000000000000000000000000000000000000000000400000000000000000000000000000000000000000000000000000000069800b8400000000000000000000000000000000000000000000000000000000000003400000000000000000000000000000000000000000000000000000000000000040000000000000000000000000000000000000000000000000000000000000008000000000000000000000000000000000000000000000000000000000000000030212120000000000000000000000000000000000000000000000000000000000000000000000000000000000000000000000000000000000000000000000000300000000000000000000000000000000000000000000000000000000000000600000000000000000000000000000000000000000000000000000000000000220000000000000000000000000000000000000000000000000000000000000026000000000000000000000000000000000000000000000000000000000000001a00000000000000000000000009ed4f4724b521326a9d9d2420252440bd05556c4000000000000000000000000cb68357b50a5e759e9c530f172a8174efa1e350d00000000000000000000000000000000000000000000000000000000000001f400000000000000000000000000000000000000000000000000000000000000050000000000000000000000007e0c07eeabb2459d70dba5b8d100dca44c652ac00000000000000000000000000000000000000000000000000000000000001b1200000000000000000000000000000000000000000000000000000000000075080000000000000000000000000000000000000000000000000000001e66915cb300000000000000000000000000000000ffffffffffffffffffffffffffffffff00000000000000000000000000000000ffffffffffffffffffffffffffffffff000000000000000000000000f39fd6e51aad88f6f4ce6ab8827279cfffb922660000000000000000000000000000000000000000000000000000000000000180000000000000000000000000000000000000000000000000000000000000000000000000000000000000000000000000000000000000000000000000000000200000000000000000000000009ed4f4724b521326a9d9d2420252440bd05556c40000000000000000000000000000000000000000000000000000000000000020000000000000000000000000cb68357b50a5e759e9c530f172a8174efa1e350d",
        "nonce": "0x1292",
        "chainId": "0x1"
      },
      "additionalContracts": [],
      "isFixedGasLimit": false
    }
  ],
  "receipts": [
    {
      "status": "0x1",
      "cumulativeGasUsed": "0x73046",
      "logs": [
        {
          "address": "0xbd216513d74c8cf14cf4747e6aaa6420ff64ee9e",
          "topics": [
            "0xddf252ad1be2c89b69c2b068fc378daa952ba7f163c4a11628f55a4df523b3ef",
            "0x0000000000000000000000000000000000000000000000000000000000000000",
            "0x000000000000000000000000f39fd6e51aad88f6f4ce6ab8827279cfffb92266",
            "0x000000000000000000000000000000000000000000000000000000000002431d"
          ],
          "data": "0x",
          "blockHash": "0x7175cea3e63c7c04ac4560b371fc0971c9d53cc1ce202a6eaeec7563434ed1e1",
          "blockNumber": "0x173c17c",
          "blockTimestamp": "0x697ffd98",
          "transactionHash": "0x961bd0b510665006b4448c7ec303f7911878afbe3bad5ef459fc9b165b19535d",
          "transactionIndex": "0x0",
          "logIndex": "0x0",
          "removed": false
        },
        {
          "address": "0x000000000004444c5dc75cb358380d2e3de08a90",
          "topics": [
            "0xf208f4912782fd25c7f114ca3723a2d5dd6f3bcc3ac8db5af63baa85f711d5ec",
            "0xed50b724bd1daf3ad1783a50bae32986c5a2a5b8d4a813f6a1ead178f31f763e",
            "0x000000000000000000000000bd216513d74c8cf14cf4747e6aaa6420ff64ee9e"
          ],
          "data": "0x0000000000000000000000000000000000000000000000000000000000001b1200000000000000000000000000000000000000000000000000000000000075080000000000000000000000000000000000000000000000000000001e66915cb3000000000000000000000000000000000000000000000000000000000002431d",
          "blockHash": "0x7175cea3e63c7c04ac4560b371fc0971c9d53cc1ce202a6eaeec7563434ed1e1",
          "blockNumber": "0x173c17c",
          "blockTimestamp": "0x697ffd98",
          "transactionHash": "0x961bd0b510665006b4448c7ec303f7911878afbe3bad5ef459fc9b165b19535d",
          "transactionIndex": "0x0",
          "logIndex": "0x1",
          "removed": false
        },
        {
          "address": "0x9ed4f4724b521326a9d9d2420252440bd05556c4",
          "topics": [
            "0xddf252ad1be2c89b69c2b068fc378daa952ba7f163c4a11628f55a4df523b3ef",
            "0x000000000000000000000000f39fd6e51aad88f6f4ce6ab8827279cfffb92266",
            "0x000000000000000000000000000000000004444c5dc75cb358380d2e3de08a90"
          ],
          "data": "0x0000000000000000000000000000000000000000000000000000000725eb9aa7",
          "blockHash": "0x7175cea3e63c7c04ac4560b371fc0971c9d53cc1ce202a6eaeec7563434ed1e1",
          "blockNumber": "0x173c17c",
          "blockTimestamp": "0x697ffd98",
          "transactionHash": "0x961bd0b510665006b4448c7ec303f7911878afbe3bad5ef459fc9b165b19535d",
          "transactionIndex": "0x0",
          "logIndex": "0x2",
          "removed": false
        },
        {
          "address": "0xcb68357b50a5e759e9c530f172a8174efa1e350d",
          "topics": [
            "0xddf252ad1be2c89b69c2b068fc378daa952ba7f163c4a11628f55a4df523b3ef",
            "0x000000000000000000000000f39fd6e51aad88f6f4ce6ab8827279cfffb92266",
            "0x000000000000000000000000000000000004444c5dc75cb358380d2e3de08a90"
          ],
          "data": "0x000000000000000000000000000000000000000000000000000000174876e800",
          "blockHash": "0x7175cea3e63c7c04ac4560b371fc0971c9d53cc1ce202a6eaeec7563434ed1e1",
          "blockNumber": "0x173c17c",
          "blockTimestamp": "0x697ffd98",
          "transactionHash": "0x961bd0b510665006b4448c7ec303f7911878afbe3bad5ef459fc9b165b19535d",
          "transactionIndex": "0x0",
          "logIndex": "0x3",
          "removed": false
        }
      ],
      "logsBloom": "0x00000040004000000004200000000000000000000000000040000800000000000000000022000000001000000000000400000000000000000000000000400000000000000000000000000808000000000000000000000000000000000000000000000000020000000000000100000800000000080000000000000010100008000000020801000000000000000000000000000000000000000000000000000000000004000000000000000000100002000000000000000000000000000000000000000802020000200000100000000000000000402000000000000000000020000000000000008000000000000000000004000000000000000000000000000000",
      "type": "0x2",
      "transactionHash": "0x961bd0b510665006b4448c7ec303f7911878afbe3bad5ef459fc9b165b19535d",
      "transactionIndex": "0x0",
      "blockHash": "0x7175cea3e63c7c04ac4560b371fc0971c9d53cc1ce202a6eaeec7563434ed1e1",
      "blockNumber": "0x173c17c",
      "gasUsed": "0x73046",
      "effectiveGasPrice": "0xcc195",
      "blobGasPrice": "0x1",
      "from": "0xf39fd6e51aad88f6f4ce6ab8827279cfffb92266",
      "to": "0xbd216513d74c8cf14cf4747e6aaa6420ff64ee9e",
      "contractAddress": null
    }
  ],
  "libraries": [],
  "pending": [],
  "returns": {},
  "timestamp": 1769981750998,
  "chain": 1,
  "commit": "bfc1193"
}