{
  "transactions": [
    {
      "hash": "0xa9860da596660dc08f663d4b0d857c4d15e5858f293669c18068cb1eefc13d83",
      "transactionType": "CREATE",
      "contractName": "LifecycleSwapRouter",
      "contractAddress": "0xe76393696bf8f119142c3dc9beb90c8e206b7f24",
      "function": null,
      "arguments": [
        "0x000000000004444c5dc75cB358380D2e3dE08A90"
      ],
      "transaction": {
        "from": "0x15d34aaf54267db7d7c367839aaf71a00a2c6a65",
        "gas": "0xbafe4",
        "value": "0x0",
        "input": "0x60a034607257601f610a3538819003918201601f19168301916001600160401b03831184841017607657808492602094604052833981010312607257516001600160a01b03811681036072576080526040516109aa908161008b8239608051818181604f0152818160d201526105200152f35b5f80fd5b634e487b7160e01b5f52604160045260245ffdfe60806040526004361015610011575f80fd5b5f3560e01c806341a1df46146103f657806391dd7346146100825763dc4c90d31461003a575f80fd5b3461007e575f36600319011261007e576040517f00000000000000000000000000000000000000000000000000000000000000006001600160a01b03168152602090f35b5f80fd5b3461007e57602036600319011261007e5760043567ffffffffffffffff811161007e573660238201121561007e57806004013567ffffffffffffffff811161007e57810136602482011161007e577f00000000000000000000000000000000000000000000000000000000000000009060018060a01b038216928333036103c8576101008183031261007e5760a060246040519361011f85610603565b83900301602319011261007e57604051926101398461061f565b6101456024830161065d565b84526101536044830161065d565b6020850152606482013562ffffff8116810361007e57604085015260848201358060020b810361007e57606085015260a48201356001600160a01b038116810361007e57608085015283835260c4820135938415159283860361007e57602085019586526101cf61010460e4830135928360408901520161065d565b606086019081529380156103ad576401000276a4925b6040519860608a01908a821067ffffffffffffffff8311176103995760209561024495610144955f946040528d52878d0190815260408d019160018060a01b031682526040519c8d978896633cf3645360e21b8852600488019061069b565b51151560a48601525160c4850152516001600160a01b031660e484015261012061010484015261012483018290525af193841561038e575f94610358575b516103039550156103075782515182516102df94916102bf916001600160a01b039182169116846102b660808a901d6106ed565b600f0b92610739565b51602001519151600f85900b926001600160a01b0391821692911661090e565b604051906020820152602081526102f760408261063b565b60405191829182610671565b0390f35b82516020015182516103539491610333916001600160a01b039182169116846102b6600f8a900b6106ed565b51519151608085901d600f0b926001600160a01b0391821692911661090e565b6102df565b93506020853d602011610386575b816103736020938361063b565b8101031261007e57610303945193610282565b3d9150610366565b6040513d5f823e3d90fd5b634e487b7160e01b5f52604160045260245ffd5b73fffd8963efd1fc6a506488495d951d5263988d25926101e5565b60405162461bcd60e51b81526020600482015260066024820152654e6f7420504d60d01b6044820152606490fd5b3461007e57366003190160e0811261007e5760a01361007e5760405161041b8161061f565b6004356001600160a01b038116810361007e5781526024356001600160a01b038116810361007e57602082015260443562ffffff8116810361007e5760408201526064358060020b810361007e5760608201526084356001600160a01b038116810361007e57608082015260a43580151580910361007e5761051b915f916040516104a581610603565b828152602081019182526060604082019160c435835201913383526104d160405194602086019061069b565b51151560c08401525160e0830152516001600160a01b03166101008083019190915281526105016101208261063b565b604051809381926348c8949160e01b835260048301610671565b0381837f00000000000000000000000000000000000000000000000000000000000000006001600160a01b03165af190811561038e575f91610579575b506020815191818082019384920101031261007e5760209051604051908152f35b90503d805f833e61058a818361063b565b81019060208183031261007e5780519067ffffffffffffffff821161007e570181601f8201121561007e5780519067ffffffffffffffff821161039957604051926105df601f8401601f19166020018561063b565b8284526020838301011161007e57815f9260208093018386015e8301015281610558565b6080810190811067ffffffffffffffff82111761039957604052565b60a0810190811067ffffffffffffffff82111761039957604052565b90601f8019910116810190811067ffffffffffffffff82111761039957604052565b35906001600160a01b038216820361007e57565b602060409281835280519182918282860152018484015e5f828201840152601f01601f1916010190565b80516001600160a01b03908116835260208083015182169084015260408083015162ffffff169084015260608083015160020b9084015260809182015116910152565b9081602091031261007e575190565b600f0b6f7fffffffffffffffffffffffffffffff19811461070d575f0390565b634e487b7160e01b5f52601160045260245ffd5b9081602091031261007e5751801515810361007e5790565b9192916001600160a01b0316806107a75750604051630476982d60e21b81529250602091839160049183916001600160a01b03165af1801561038e5761077c5750565b61079d9060203d6020116107a0575b610795818361063b565b8101906106de565b50565b503d61078b565b6001600160a01b0390911691823b1561007e57604051632961046560e21b815260048101839052935a945f816024818389819bf1801561038e576108f9575b506001600160a01b03168430821461089e576020929160649160405195869485936323b872dd60e01b8552600485015288602485015260448401525af1801561089357916020918493610866575b505b600460405180958193630476982d60e21b83525af190811561085a575061077c5750565b604051903d90823e3d90fd5b61088590833d851161088c575b61087d818361063b565b810190610721565b505f610834565b503d610873565b6040513d85823e3d90fd5b9290506044602092604051948593849263a9059cbb60e01b845288600485015260248401525af18015610893579160209184936108dc575b50610836565b6108f290833d851161088c5761087d818361063b565b505f6108d6565b6109069195505f9061063b565b5f935f6107e6565b91906001600160a01b0316803b1561007e57604051630b0d9c0960e01b81526001600160a01b03938416600482015291909216602482015260448101929092525f908290606490829084905af1801561038e576109685750565b5f6109729161063b565b56fea2646970667358221220fda714f85bfb00a98ed0e688ac135d6890cd4c68a7790240e7e295789b797f8a64736f6c634300081a0033000000000000000000000000000000000004444c5dc75cb358380d2e3de08a90",
        "nonce": "0xbbb",
        "chainId": "0x1"
      },
      "additionalContracts": [],
      "isFixedGasLimit": false
    },
    {
      "hash": "0x4019f7bf9bb11e9756d909539c922b749749ee79e5fb516102e7ef52ad94cc4f",
      "transactionType": "CALL",
      "contractName": null,
      "contractAddress": "0xb9b0c96e4e7181926d2a7ed331c9c346dfa59b4d",
      "function": "approve(address,uint256)",
      "arguments": [
        "0xE76393696bF8F119142c3dC9beB90C8E206B7F24",
        "115792089237316195423570985008687907853269984665640564039457584007913129639935"
      ],
      "transaction": {
        "from": "0x15d34aaf54267db7d7c367839aaf71a00a2c6a65",
        "to": "0xb9b0c96e4e7181926d2a7ed331c9c346dfa59b4d",
        "gas": "0xf9a6",
        "value": "0x0",
        "input": "0x095ea7b3000000000000000000000000e76393696bf8f119142c3dc9beb90c8e206b7f24ffffffffffffffffffffffffffffffffffffffffffffffffffffffffffffffff",
        "nonce": "0xbbc",
        "chainId": "0x1"
      },
      "additionalContracts": [],
      "isFixedGasLimit": false
    },
    {
      "hash": "0x4638c50966b3809f5bf21112818ad1ec18b694af5a3d27cf88fa990d6993dfac",
      "transactionType": "CALL",
      "contractName": null,
      "contractAddress": "0xcf6c6272e9e353fc1f3e9a747a7b7aade3c83389",
      "function": "approve(address,uint256)",
      "arguments": [
        "0xE76393696bF8F119142c3dC9beB90C8E206B7F24",
        "115792089237316195423570985008687907853269984665640564039457584007913129639935"
      ],
      "transaction": {
        "from": "0x15d34aaf54267db7d7c367839aaf71a00a2c6a65",
        "to": "0xcf6c6272e9e353fc1f3e9a747a7b7aade3c83389",
        "gas": "0x10837",
        "value": "0x0",
        "input": "0x095ea7b3000000000000000000000000e76393696bf8f119142c3dc9beb90c8e206b7f24ffffffffffffffffffffffffffffffffffffffffffffffffffffffffffffffff",
        "nonce": "0xbbd",
        "chainId": "0x1"
      },
      "additionalContracts": [],
      "isFixedGasLimit": false
    },
    {
      "hash": "0x6b7e2bf30fdec7e1cc409872e01f2e4d3eed2a4e0ca2611635f053a2e848b7ba",
      "transactionType": "CALL",
      "contractName": null,
      "contractAddress": "0xb9b0c96e4e7181926d2a7ed331c9c346dfa59b4d",
      "function": "approve(address,uint256)",
      "arguments": [
        "0x000000000004444c5dc75cB358380D2e3dE08A90",
        "115792089237316195423570985008687907853269984665640564039457584007913129639935"
      ],
      "transaction": {
        "from": "0x15d34aaf54267db7d7c367839aaf71a00a2c6a65",
        "to": "0xb9b0c96e4e7181926d2a7ed331c9c346dfa59b4d",
        "gas": "0x8df5",
        "value": "0x0",
        "input": "0x095ea7b3000000000000000000000000000000000004444c5dc75cb358380d2e3de08a90ffffffffffffffffffffffffffffffffffffffffffffffffffffffffffffffff",
        "nonce": "0xbbe",
        "chainId": "0x1"
      },
      "additionalContracts": [],
      "isFixedGasLimit": false
    },
    {
      "hash": "0x273c7d2e4773eb6144b0c0cf7d0561172fe6d365f8e0794828527219196f345c",
      "transactionType": "CALL",
      "contractName": null,
      "contractAddress": "0xcf6c6272e9e353fc1f3e9a747a7b7aade3c83389",
      "function": "approve(address,uint256)",
      "arguments": [
        "0x000000000004444c5dc75cB358380D2e3dE08A90",
        "115792089237316195423570985008687907853269984665640564039457584007913129639935"
      ],
      "transaction": {
        "from": "0x15d34aaf54267db7d7c367839aaf71a00a2c6a65",
        "to": "0xcf6c6272e9e353fc1f3e9a747a7b7aade3c83389",
        "gas": "0x962f",
        "value": "0x0",
        "input": "0x095ea7b3000000000000000000000000000000000004444c5dc75cb358380d2e3de08a90ffffffffffffffffffffffffffffffffffffffffffffffffffffffffffffffff",
        "nonce": "0xbbf",
        "chainId": "0x1"
      },
      "additionalContracts": [],
      "isFixedGasLimit": false
    },
    {
      "hash": "0x17499e368b5947c446ff67cecdff7e29df99ad4cdaab3786b3323da7be6e5bb1",
      "transactionType": "CALL",
      "contractName": "LifecycleSwapRouter",
      "contractAddress": "0xe76393696bf8f119142c3dc9beb90c8e206b7f24",
      "function": "swap((address,address,uint24,int24,address),bool,int256)",
      "arguments": [
        "(0xb9b0c96e4E7181926D2A7ed331C9C346dfa59b4D, 0xcF6c6272E9e353fc1F3e9A747A7B7AADE3c83389, 500, 5, 0x7e0C07EEabb2459D70dba5b8d100Dca44c652aC0)",
        "true",
        "-293552394391"
      ],
      "transaction": {
        "from": "0x15d34aaf54267db7d7c367839aaf71a00a2c6a65",
        "to": "0xe76393696bf8f119142c3dc9beb90c8e206b7f24",
        "gas": "0x304b5",
        "value": "0x0",
        "input": "0x41a1df46000000000000000000000000b9b0c96e4e7181926d2a7ed331c9c346dfa59b4d000000000000000000000000cf6c6272e9e353fc1f3e9a747a7b7aade3c8338900000000000000000000000000000000000000000000000000000000000001f400000000000000000000000000000000000000000000000000000000000000050000000000000000000000007e0c07eeabb2459d70dba5b8d100dca44c652ac00000000000000000000000000000000000000000000000000000000000000001ffffffffffffffffffffffffffffffffffffffffffffffffffffffbba6e9ef69",
        "nonce": "0xbc0",
        "chainId": "0x1"
      },
      "additionalContracts": [],
      "isFixedGasLimit": false
    }
  ],
  "receipts": [
    {
      "status": "0x1",
      "cumulativeGasUsed": "0x1647e0",
      "logs": [],
      "logsBloom": "0x00000000000000000000000000000000000000000000000000000000000000000000000000000000000000000000000000000000000000000000000000000000000000000000000000000000000000000000000000000000000000000000000000000000000000000000000000000000000000000000000000000000000000000000000000000000000000000000000000000000000000000000000000000000000000000000000000000000000000000000000000000000000000000000000000000000000000000000000000000000000000000000000000000000000000000000000000000000000000000000000000000000000000000000000000000000",
      "type": "0x2",
      "transactionHash": "0xa9860da596660dc08f663d4b0d857c4d15e5858f293669c18068cb1eefc13d83",
      "transactionIndex": "0x6",
      "blockHash": "0x9cfcf937936c7a1f4e1f3687c33a09e0dcd3ec7cab6c1b9bb87027247d36081c",
      "blockNumber": "0x14b42cb",
      "gasUsed": "0x8fd75",
      "effectiveGasPrice": "0x3b9aca07",
      "blobGasPrice": "0x1",
      "from": "0x15d34aaf54267db7d7c367839aaf71a00a2c6a65",
      "to": null,
      "contractAddress": "0xe76393696bf8f119142c3dc9beb90c8e206b7f24"
    },
    {
      "status": "0x1",
      "cumulativeGasUsed": "0x16fc9f",
      "logs": [
        {
          "address": "0xb9b0c96e4e7181926d2a7ed331c9c346dfa59b4d",
          "topics": [
            "0x8c5be1e5ebec7d5bd14f71427d1e84f3dd0314c0f7b2291e5b200ac8c7c3b925",
            "0x00000000000000000000000015d34aaf54267db7d7c367839aaf71a00a2c6a65",
            "0x000000000000000000000000e76393696bf8f119142c3dc9beb90c8e206b7f24"
          ],
          "data": "0xffffffffffffffffffffffffffffffffffffffffffffffffffffffffffffffff",
          "blockHash": "0x9cfcf937936c7a1f4e1f3687c33a09e0dcd3ec7cab6c1b9bb87027247d36081c",
          "blockNumber": "0x14b42cb",
          "blockTimestamp": "0x67951332",
          "transactionHash": "0x4019f7bf9bb11e9756d909539c922b749749ee79e5fb516102e7ef52ad94cc4f",
          "transactionIndex": "0x7",
          "logIndex": "0x7",
          "removed": false
        }
      ],
      "logsBloom": "0x00000000040000000000000000000000000000000000000000000000000000000000000000000000000000000000000000000002000000000000000000200000000000000000000000000000000000000000000000000000100000000000000000000000000000000000000000800000000000000000000000000000000000000000000000000000000000000000000000000000000000000000400100000000020000000000000000000000000000000000000000000000000000000000001000000000000000000000000000000000000000000000000000000000000004000010000000000000000000000000000000000000000000000000000100000000",
      "type": "0x2",
      "transactionHash": "0x4019f7bf9bb11e9756d909539c922b749749ee79e5fb516102e7ef52ad94cc4f",
      "transactionIndex": "0x7",
      "blockHash": "0x9cfcf937936c7a1f4e1f3687c33a09e0dcd3ec7cab6c1b9bb87027247d36081c",
      "blockNumber": "0x14b42cb",
      "gasUsed": "0xb4bf",
      "effectiveGasPrice": "0x3b9aca07",
      "blobGasPrice": "0x1",
      "from": "0x15d34aaf54267db7d7c367839aaf71a00a2c6a65",
      "to": "0xb9b0c96e4e7181926d2a7ed331c9c346dfa59b4d",
      "contractAddress": null
    },
    {
      "status": "0x1",
      "cumulativeGasUsed": "0x17b148",
      "logs": [
        {
          "address": "0xcf6c6272e9e353fc1f3e9a747a7b7aade3c83389",
          "topics": [
            "0x8c5be1e5ebec7d5bd14f71427d1e84f3dd0314c0f7b2291e5b200ac8c7c3b925",
            "0x00000000000000000000000015d34aaf54267db7d7c367839aaf71a00a2c6a65",
            "0x000000000000000000000000e76393696bf8f119142c3dc9beb90c8e206b7f24"
          ],
          "data": "0xffffffffffffffffffffffffffffffffffffffffffffffffffffffffffffffff",
          "blockHash": "0x9cfcf937936c7a1f4e1f3687c33a09e0dcd3ec7cab6c1b9bb87027247d36081c",
          "blockNumber": "0x14b42cb",
          "blockTimestamp": "0x67951332",
          "transactionHash": "0x4638c50966b3809f5bf21112818ad1ec18b694af5a3d27cf88fa990d6993dfac",
          "transactionIndex": "0x8",
          "logIndex": "0x8",
          "removed": false
        }
      ],
      "logsBloom": "0x00000000040000000000000000000000000000000000000000000000000004000000000000000000000000000000000000000002000000000000000000200000000000000000000000000000000000000000000000000000008000000000000000000000000000000000000000800000000000000000000000000000000000000000000000200000000000000000000000000000000000000000400100000000020000000000000000000000000000000000000000000000000000000000000000000000000000000000000000000000000000000000000000000000000004000010000000000000000000000000000000000000000000000000000000000000",
      "type": "0x2",
      "transactionHash": "0x4638c50966b3809f5bf21112818ad1ec18b694af5a3d27cf88fa990d6993dfac",
      "transactionIndex": "0x8",
      "blockHash": "0x9cfcf937936c7a1f4e1f3687c33a09e0dcd3ec7cab6c1b9bb87027247d36081c",
      "blockNumber": "0x14b42cb",
      "gasUsed": "0xb4a9",
      "effectiveGasPrice": "0x3b9aca07",
      "blobGasPrice": "0x1",
      "from": "0x15d34aaf54267db7d7c367839aaf71a00a2c6a65",
      "to": "0xcf6c6272e9e353fc1f3e9a747a7b7aade3c83389",
      "contractAddress": null
    },
    {
      "status": "0x1",
      "cumulativeGasUsed": "0x18180f",
      "logs": [
        {
          "address": "0xb9b0c96e4e7181926d2a7ed331c9c346dfa59b4d",
          "topics": [
            "0x8c5be1e5ebec7d5bd14f71427d1e84f3dd0314c0f7b2291e5b200ac8c7c3b925",
            "0x00000000000000000000000015d34aaf54267db7d7c367839aaf71a00a2c6a65",
            "0x000000000000000000000000000000000004444c5dc75cb358380d2e3de08a90"
          ],
          "data": "0xffffffffffffffffffffffffffffffffffffffffffffffffffffffffffffffff",
          "blockHash": "0x9cfcf937936c7a1f4e1f3687c33a09e0dcd3ec7cab6c1b9bb87027247d36081c",
          "blockNumber": "0x14b42cb",
          "blockTimestamp": "0x67951332",
          "transactionHash": "0x17499e368b5947c446ff67cecdff7e29df99ad4cdaab3786b3323da7be6e5bb1",
          "transactionIndex": "0x9",
          "logIndex": "0x9",
          "removed": false
        }
      ],
      "logsBloom": "0x00000000040000000000000000000000000000000000000000000000000000000000000000000000001000000000000000000000000000000000000000200000000000000000000000000000000000000000000000000000100000000000000000000000000000000000000000000000000000000000000000000000000000000000000800000000000000000000000000000000000000000000000100000000020000000000000000000000000000000000000000000000000000000000001000000000000000000000000000000000000000400000000000000000000004000010000000000000000000000000000000000000000000000000000100000000",
      "type": "0x2",
      "transactionHash": "0x17499e368b5947c446ff67cecdff7e29df99ad4cdaab3786b3323da7be6e5bb1",
      "transactionIndex": "0x9",
      "blockHash": "0x9cfcf937936c7a1f4e1f3687c33a09e0dcd3ec7cab6c1b9bb87027247d36081c",
      "blockNumber": "0x14b42cb",
      "gasUsed": "0x66c7",
      "effectiveGasPrice": "0x3b9aca07",
      "blobGasPrice": "0x1",
      "from": "0x15d34aaf54267db7d7c367839aaf71a00a2c6a65",
      "to": "0xb9b0c96e4e7181926d2a7ed331c9c346dfa59b4d",
      "contractAddress": null
    },
    {
      "status": "0x1",
      "cumulativeGasUsed": "0x187ec0",
      "logs": [
        {
          "address": "0xcf6c6272e9e353fc1f3e9a747a7b7aade3c83389",
          "topics": [
            "0x8c5be1e5ebec7d5bd14f71427d1e84f3dd0314c0f7b2291e5b200ac8c7c3b925",
            "0x00000000000000000000000015d34aaf54267db7d7c367839aaf71a00a2c6a65",
            "0x000000000000000000000000000000000004444c5dc75cb358380d2e3de08a90"
          ],
          "data": "0xffffffffffffffffffffffffffffffffffffffffffffffffffffffffffffffff",
          "blockHash": "0x9cfcf937936c7a1f4e1f3687c33a09e0dcd3ec7cab6c1b9bb87027247d36081c",
          "blockNumber": "0x14b42cb",
          "blockTimestamp": "0x67951332",
          "transactionHash": "0x6b7e2bf30fdec7e1cc409872e01f2e4d3eed2a4e0ca2611635f053a2e848b7ba",
          "transactionIndex": "0xa",
          "logIndex": "0xa",
          "removed": false
        }
      ],
      "logsBloom": "0x00000000040000000000000000000000000000000000000000000000000004000000000000000000001000000000000000000000000000000000000000200000000000000000000000000000000000000000000000000000008000000000000000000000000000000000000000000000000000000000000000000000000000000000000800200000000000000000000000000000000000000000000100000000020000000000000000000000000000000000000000000000000000000000000000000000000000000000000000000000000000400000000000000000000004000010000000000000000000000000000000000000000000000000000000000000",
      "type": "0x2",
      "transactionHash": "0x6b7e2bf30fdec7e1cc409872e01f2e4d3eed2a4e0ca2611635f053a2e848b7ba",
      "transactionIndex": "0xa",
      "blockHash": "0x9cfcf937936c7a1f4e1f3687c33a09e0dcd3ec7cab6c1b9bb87027247d36081c",
      "blockNumber": "0x14b42cb",
      "gasUsed": "0x66b1",
      "effectiveGasPrice": "0x3b9aca07",
      "blobGasPrice": "0x1",
      "from": "0x15d34aaf54267db7d7c367839aaf71a00a2c6a65",
      "to": "0xcf6c6272e9e353fc1f3e9a747a7b7aade3c83389",
      "contractAddress": null
    },
    {
      "status": "0x1",
      "cumulativeGasUsed": "0x1a9dae",
      "logs": [
        {
          "address": "0x000000000004444c5dc75cb358380d2e3de08a90",
          "topics": [
            "0x40e9cecb9f5f1f1c5b9c97dec2917b7ee92e57ba5563708daca94dd84ad7112f",
            "0x9cf2fc58c4a019f671bfc7acf6a1f536c39eedec28a8a85dacc6c2bd5066bc88",
            "0x000000000000000000000000e76393696bf8f119142c3dc9beb90c8e206b7f24"
          ],
          "data": "0xffffffffffffffffffffffffffffffffffffffffffffffffffffffbba6e9ef69000000000000000000000000000000000000000000000000000000107e13c39a00000000000000000000000000000000000000007c9e5feab2be77388e0d169f000000000000000000000000000000000000000000000000000007098e071093ffffffffffffffffffffffffffffffffffffffffffffffffffffffffffffc7c000000000000000000000000000000000000000000000000000000000000001f4",
          "blockHash": "0x9cfcf937936c7a1f4e1f3687c33a09e0dcd3ec7cab6c1b9bb87027247d36081c",
          "blockNumber": "0x14b42cb",
          "blockTimestamp": "0x67951332",
          "transactionHash": "0x273c7d2e4773eb6144b0c0cf7d0561172fe6d365f8e0794828527219196f345c",
          "transactionIndex": "0xb",
          "logIndex": "0xb",
          "removed": false
        },
        {
          "address": "0xb9b0c96e4e7181926d2a7ed331c9c346dfa59b4d",
          "topics": [
            "0xddf252ad1be2c89b69c2b068fc378daa952ba7f163c4a11628f55a4df523b3ef",
            "0x00000000000000000000000015d34aaf54267db7d7c367839aaf71a00a2c6a65",
            "0x000000000000000000000000000000000004444c5dc75cb358380d2e3de08a90"
          ],
          "data": "0x0000000000000000000000000000000000000000000000000000004459161097",
          "blockHash": "0x9cfcf937936c7a1f4e1f3687c33a09e0dcd3ec7cab6c1b9bb87027247d36081c",
          "blockNumber": "0x14b42cb",
          "blockTimestamp": "0x67951332",
          "transactionHash": "0x273c7d2e4773eb6144b0c0cf7d0561172fe6d365f8e0794828527219196f345c",
          "transactionIndex": "0xb",
          "logIndex": "0xc",
          "removed": false
        },
        {
          "address": "0xcf6c6272e9e353fc1f3e9a747a7b7aade3c83389",
          "topics": [
            "0xddf252ad1be2c89b69c2b068fc378daa952ba7f163c4a11628f55a4df523b3ef",
            "0x000000000000000000000000000000000004444c5dc75cb358380d2e3de08a90",
            "0x00000000000000000000000015d34aaf54267db7d7c367839aaf71a00a2c6a65"
          ],
          "data": "0x000000000000000000000000000000000000000000000000000000107e13c39a",
          "blockHash": "0x9cfcf937936c7a1f4e1f3687c33a09e0dcd3ec7cab6c1b9bb87027247d36081c",
          "blockNumber": "0x14b42cb",
          "blockTimestamp": "0x67951332",
          "transactionHash": "0x273c7d2e4773eb6144b0c0cf7d0561172fe6d365f8e0794828527219196f345c",
          "transactionIndex": "0xb",
          "logIndex": "0xd",
          "removed": false
        }
      ],
      "logsBloom": "0x00000000040000000000000000000000000000000000000000000000000004000000000020000000005000000000000000000002040000000000400000000000000000000000000000000008000000000000000000000020108000000000000000000000000000000000000000800100000000000000000000000010000000000000000800200000000000000000000000000000000000000000400100000000000000000000000000000000100000000000000000000000000000000000001000000802000000000000000000000000000000400000000000000000000004000000000000000000004000000000000000000000000000000000000100000000",
      "type": "0x2",
      "transactionHash": "0x273c7d2e4773eb6144b0c0cf7d0561172fe6d365f8e0794828527219196f345c",
      "transactionIndex": "0xb",
      "blockHash": "0x9cfcf937936c7a1f4e1f3687c33a09e0dcd3ec7cab6c1b9bb87027247d36081c",
      "blockNumber": "0x14b42cb",
      "gasUsed": "0x21eee",
      "effectiveGasPrice": "0x3b9aca07",
      "blobGasPrice": "0x1",
      "from": "0x15d34aaf54267db7d7c367839aaf71a00a2c6a65",
      "to": "0xe76393696bf8f119142c3dc9beb90c8e206b7f24",
      "contractAddress": null
    }
  ],
  "libraries": [],
  "pending": [],
  "returns": {},
  "timestamp": 1770245166925,
  "chain": 1,
  "commit": "bcc8fe5"
}