{
  "transactions": [
    {
      "hash": "0x1435a09bf4ba0ff289c8f47131d5dfa4eab13804349bfb0a35815697b7e1af61",
      "transactionType": "CALL",
      "contractName": null,
      "contractAddress": "0xb9b0c96e4e7181926d2a7ed331c9c346dfa59b4d",
      "function": "approve(address,uint256)",
      "arguments": [
        "0x7e0C07EEabb2459D70dba5b8d100Dca44c652aC0",
        "40000000000"
      ],
      "transaction": {
        "from": "0x3c44cdddb6a900fa2b585dd299e03d12fa4293bc",
        "to": "0xb9b0c96e4e7181926d2a7ed331c9c346dfa59b4d",
        "gas": "0x9b83",
        "value": "0x0",
        "input": "0x095ea7b30000000000000000000000007e0c07eeabb2459d70dba5b8d100dca44c652ac000000000000000000000000000000000000000000000000000000009502f9000",
        "nonce": "0x39",
        "chainId": "0x1"
      },
      "additionalContracts": [],
      "isFixedGasLimit": false
    },
    {
      "hash": "0xda5dcd46770bd06eb2d7196c72c4fabfc3b37a7c699924527900130db476caa8",
      "transactionType": "CALL",
      "contractName": null,
      "contractAddress": "0x7e0c07eeabb2459d70dba5b8d100dca44c652ac0",
      "function": "submitOrder(((address,address,uint24,int24,address),bool,uint256,uint256))",
      "arguments": [
        "((0xb9b0c96e4E7181926D2A7ed331C9C346dfa59b4D, 0xcF6c6272E9e353fc1F3e9A747A7B7AADE3c83389, 500, 5, 0x7e0C07EEabb2459D70dba5b8d100Dca44c652aC0), true, 3600, 40000000000)"
      ],
      "transaction": {
        "from": "0x3c44cdddb6a900fa2b585dd299e03d12fa4293bc",
        "to": "0x7e0c07eeabb2459d70dba5b8d100dca44c652ac0",
        "gas": "0x31099",
        "value": "0x0",
        "input": "0x676f863a000000000000000000000000b9b0c96e4e7181926d2a7ed331c9c346dfa59b4d000000000000000000000000cf6c6272e9e353fc1f3e9a747a7b7aade3c8338900000000000000000000000000000000000000000000000000000000000001f400000000000000000000000000000000000000000000000000000000000000050000000000000000000000007e0c07eeabb2459d70dba5b8d100dca44c652ac000000000000000000000000000000000000000000000000000000000000000010000000000000000000000000000000000000000000000000000000000000e1000000000000000000000000000000000000000000000000000000009502f9000",
        "nonce": "0x3a",
        "chainId": "0x1"
      },
      "additionalContracts": [],
      "isFixedGasLimit": false
    }
  ],
  "receipts": [
    {
      "status": "0x1",
      "cumulativeGasUsed": "0x7097",
      "logs": [
        {
          "address": "0xb9b0c96e4e7181926d2a7ed331c9c346dfa59b4d",
          "topics": [
            "0x8c5be1e5ebec7d5bd14f71427d1e84f3dd0314c0f7b2291e5b200ac8c7c3b925",
            "0x0000000000000000000000003c44cdddb6a900fa2b585dd299e03d12fa4293bc",
            "0x0000000000000000000000007e0c07eeabb2459d70dba5b8d100dca44c652ac0"
          ],
          "data": "0x00000000000000000000000000000000000000000000000000000009502f9000",
          "blockHash": "0xd469aa2c9af4038f9608814bb93a6df99bd0c34e3d510f31933243cb0534be0f",
          "blockNumber": "0x14b1baa",
          "blockTimestamp": "0x6794c1ec",
          "transactionHash": "0x1435a09bf4ba0ff289c8f47131d5dfa4eab13804349bfb0a35815697b7e1af61",
          "transactionIndex": "0x0",
          "logIndex": "0x0",
          "removed": false
        }
      ],
      "logsBloom": "0x00000000000000000000000000000000000000000000000000000000000000000000000000000000000000000000000000000000000002000000000000300000000000000000000000000000000000000000000000000000100000000000000000000000000000000000000000000000000800000000000000000000000000000000000000000000000000000000000000000000000000000000000000000000020000000000200000000000000000000000000000000000000000000000001000000000000000000000000000000000000000000000001000000000000000000010000000000000000000000000000000000000000002000000000100000000",
      "type": "0x2",
      "transactionHash": "0x1435a09bf4ba0ff289c8f47131d5dfa4eab13804349bfb0a35815697b7e1af61",
      "transactionIndex": "0x0",
      "blockHash": "0xd469aa2c9af4038f9608814bb93a6df99bd0c34e3d510f31933243cb0534be0f",
      "blockNumber": "0x14b1baa",
      "gasUsed": "0x7097",
      "effectiveGasPrice": "0x3b9aca07",
      "blobGasPrice": "0x1",
      "from": "0x3c44cdddb6a900fa2b585dd299e03d12fa4293bc",
      "to": "0xb9b0c96e4e7181926d2a7ed331c9c346dfa59b4d",
      "contractAddress": null
    },
    {
      "status": "0x1",
      "cumulativeGasUsed": "0x28912",
      "logs": [
        {
          "address": "0xb9b0c96e4e7181926d2a7ed331c9c346dfa59b4d",
          "topics": [
            "0xddf252ad1be2c89b69c2b068fc378daa952ba7f163c4a11628f55a4df523b3ef",
            "0x0000000000000000000000003c44cdddb6a900fa2b585dd299e03d12fa4293bc",
            "0x0000000000000000000000007e0c07eeabb2459d70dba5b8d100dca44c652ac0"
          ],
          "data": "0x00000000000000000000000000000000000000000000000000000009502f8e70",
          "blockHash": "0xd469aa2c9af4038f9608814bb93a6df99bd0c34e3d510f31933243cb0534be0f",
          "blockNumber": "0x14b1baa",
          "blockTimestamp": "0x6794c1ec",
          "transactionHash": "0xda5dcd46770bd06eb2d7196c72c4fabfc3b37a7c699924527900130db476caa8",
          "transactionIndex": "0x1",
          "logIndex": "0x1",
          "removed": false
        },
        {
          "address": "0x7e0c07eeabb2459d70dba5b8d100dca44c652ac0",
          "topics": [
            "0xaad1dbbd649002bdbd8281df7f1bc9398548f080a76b5ccece0b61709e2b69cc",
            "0x9cf2fc58c4a019f671bfc7acf6a1f536c39eedec28a8a85dacc6c2bd5066bc88",
            "0x86ac6288147edecf875d52087f454f8151d2efd69910b05788a030b35f666c62",
            "0x0000000000000000000000003c44cdddb6a900fa2b585dd299e03d12fa4293bc"
          ],
          "data": "0x00000000000000000000000000000000000000000000000000000009502f9000000000000000000000000000000000000000000000000000000000006794c43000000000000000000000000000000000000000000000000000000000000000010000000000000000000000000000000000000000000000000000000000a98ac700000000000000000000000000000000000000000000000000061471ac0796c4",
          "blockHash": "0xd469aa2c9af4038f9608814bb93a6df99bd0c34e3d510f31933243cb0534be0f",
          "blockNumber": "0x14b1baa",
          "blockTimestamp": "0x6794c1ec",
          "transactionHash": "0xda5dcd46770bd06eb2d7196c72c4fabfc3b37a7c699924527900130db476caa8",
          "transactionIndex": "0x1",
          "logIndex": "0x2",
          "removed": false
        }
      ],
      "logsBloom": "0x00000000000000000000000000000000000000000000000000000000000000000000000000000000004000000000000000000000000002000000400000100000000000000000000000000008000000000000000000000000100000000000040000000004000000000000002000000100000800000000000000000010000000000000000000000000000000000000000000000000000000000000000000000000000000000000200040000000060000000000000000000000000000000000001800000002000000000000000000000000010000000000001000000000000000000000000000000040000000000000000000000000000002000000000100000000",
      "type": "0x2",
      "transactionHash": "0xda5dcd46770bd06eb2d7196c72c4fabfc3b37a7c699924527900130db476caa8",
      "transactionIndex": "0x1",
      "blockHash": "0xd469aa2c9af4038f9608814bb93a6df99bd0c34e3d510f31933243cb0534be0f",
      "blockNumber": "0x14b1baa",
      "gasUsed": "0x2187b",
      "effectiveGasPrice": "0x3b9aca07",
      "blobGasPrice": "0x1",
      "from": "0x3c44cdddb6a900fa2b585dd299e03d12fa4293bc",
      "to": "0x7e0c07eeabb2459d70dba5b8d100dca44c652ac0",
      "contractAddress": null
    }
  ],
  "libraries": [],
  "pending": [],
  "returns": {},
  "timestamp": 1770235160800,
  "chain": 1,
  "commit": "bcc8fe5"
}