{
  "transactions": [
    {
      "hash": "0x18cf9274756e478ee63bd9ce2b4e5110b522624b082df28269040024e78f144f",
      "transactionType": "CALL",
      "contractName": null,
      "contractAddress": "0xb9b0c96e4e7181926d2a7ed331c9c346dfa59b4d",
      "function": "approve(address,uint256)",
      "arguments": [
        "0x7e0C07EEabb2459D70dba5b8d100Dca44c652aC0",
        "99999998952"
      ],
      "transaction": {
        "from": "0x3c44cdddb6a900fa2b585dd299e03d12fa4293bc",
        "to": "0xb9b0c96e4e7181926d2a7ed331c9c346dfa59b4d",
        "gas": "0xf7d6",
        "value": "0x0",
        "input": "0x095ea7b30000000000000000000000007e0c07eeabb2459d70dba5b8d100dca44c652ac0000000000000000000000000000000000000000000000000000000174876e3e8",
        "nonce": "0x33",
        "chainId": "0x1"
      },
      "additionalContracts": [],
      "isFixedGasLimit": false
    },
    {
      "hash": "0x0509a677eab4b0d8c53f17feabc3ec698b69d7576a86d6feb47ef1da29213267",
      "transactionType": "CALL",
      "contractName": null,
      "contractAddress": "0x7e0c07eeabb2459d70dba5b8d100dca44c652ac0",
      "function": "submitOrder(((address,address,uint24,int24,address),bool,uint256,uint256))",
      "arguments": [
        "((0xb9b0c96e4E7181926D2A7ed331C9C346dfa59b4D, 0xcF6c6272E9e353fc1F3e9A747A7B7AADE3c83389, 500, 5, 0x7e0C07EEabb2459D70dba5b8d100Dca44c652aC0), true, 3600, 99999998952)"
      ],
      "transaction": {
        "from": "0x3c44cdddb6a900fa2b585dd299e03d12fa4293bc",
        "to": "0x7e0c07eeabb2459d70dba5b8d100dca44c652ac0",
        "gas": "0x36c82",
        "value": "0x0",
        "input": "0x676f863a000000000000000000000000b9b0c96e4e7181926d2a7ed331c9c346dfa59b4d000000000000000000000000cf6c6272e9e353fc1f3e9a747a7b7aade3c8338900000000000000000000000000000000000000000000000000000000000001f400000000000000000000000000000000000000000000000000000000000000050000000000000000000000007e0c07eeabb2459d70dba5b8d100dca44c652ac000000000000000000000000000000000000000000000000000000000000000010000000000000000000000000000000000000000000000000000000000000e10000000000000000000000000000000000000000000000000000000174876e3e8",
        "nonce": "0x34",
        "chainId": "0x1"
      },
      "additionalContracts": [],
      "isFixedGasLimit": false
    }
  ],
  "receipts": [
    {
      "status": "0x1",
      "cumulativeGasUsed": "0xb36f",
      "logs": [
        {
          "address": "0xb9b0c96e4e7181926d2a7ed331c9c346dfa59b4d",
          "topics": [
            "0x8c5be1e5ebec7d5bd14f71427d1e84f3dd0314c0f7b2291e5b200ac8c7c3b925",
            "0x0000000000000000000000003c44cdddb6a900fa2b585dd299e03d12fa4293bc",
            "0x0000000000000000000000007e0c07eeabb2459d70dba5b8d100dca44c652ac0"
          ],
          "data": "0x000000000000000000000000000000000000000000000000000000174876e3e8",
          "blockHash": "0xbd9c6dc41ce25b8a44b45ee9f6e72c1835aeaa2e2997c10b86a3c36e9d5d909d",
          "blockNumber": "0x14b1833",
          "blockTimestamp": "0x67946a04",
          "transactionHash": "0x18cf9274756e478ee63bd9ce2b4e5110b522624b082df28269040024e78f144f",
          "transactionIndex": "0x0",
          "logIndex": "0x0",
          "removed": false
        }
      ],
      "logsBloom": "0x00000000000000000000000000000000000000000000000000000000000000000000000000000000000000000000000000000000000002000000000000300000000000000000000000000000000000000000000000000000100000000000000000000000000000000000000000000000000800000000000000000000000000000000000000000000000000000000000000000000000000000000000000000000020000000000200000000000000000000000000000000000000000000000001000000000000000000000000000000000000000000000001000000000000000000010000000000000000000000000000000000000000002000000000100000000",
      "type": "0x2",
      "transactionHash": "0x18cf9274756e478ee63bd9ce2b4e5110b522624b082df28269040024e78f144f",
      "transactionIndex": "0x0",
      "blockHash": "0xbd9c6dc41ce25b8a44b45ee9f6e72c1835aeaa2e2997c10b86a3c36e9d5d909d",
      "blockNumber": "0x14b1833",
      "gasUsed": "0xb36f",
      "effectiveGasPrice": "0x8395359",
      "blobGasPrice": "0x4fb79b",
      "from": "0x3c44cdddb6a900fa2b585dd299e03d12fa4293bc",
      "to": "0xb9b0c96e4e7181926d2a7ed331c9c346dfa59b4d",
      "contractAddress": null
    },
    {
      "status": "0x1",
      "cumulativeGasUsed": "0x25753",
      "logs": [
        {
          "address": "0xb9b0c96e4e7181926d2a7ed331c9c346dfa59b4d",
          "topics": [
            "0xddf252ad1be2c89b69c2b068fc378daa952ba7f163c4a11628f55a4df523b3ef",
            "0x0000000000000000000000003c44cdddb6a900fa2b585dd299e03d12fa4293bc",
            "0x0000000000000000000000007e0c07eeabb2459d70dba5b8d100dca44c652ac0"
          ],
          "data": "0x000000000000000000000000000000000000000000000000000000174876dd10",
          "blockHash": "0x540df296734dc4447928acf68acc3e194762d151cbe301869dc2dc3d6a9b9394",
          "blockNumber": "0x14b1834",
          "blockTimestamp": "0x67946a04",
          "transactionHash": "0x0509a677eab4b0d8c53f17feabc3ec698b69d7576a86d6feb47ef1da29213267",
          "transactionIndex": "0x0",
          "logIndex": "0x0",
          "removed": false
        },
        {
          "address": "0x7e0c07eeabb2459d70dba5b8d100dca44c652ac0",
          "topics": [
            "0xaad1dbbd649002bdbd8281df7f1bc9398548f080a76b5ccece0b61709e2b69cc",
            "0x9cf2fc58c4a019f671bfc7acf6a1f536c39eedec28a8a85dacc6c2bd5066bc88",
            "0xa7cc1b714ad4df49fcd0ff12b49db27a723d41fb347a64f90fedfc9d551092ef",
            "0x0000000000000000000000003c44cdddb6a900fa2b585dd299e03d12fa4293bc"
          ],
          "data": "0x000000000000000000000000000000000000000000000000000000174876e3e80000000000000000000000000000000000000000000000000000000067946fd000000000000000000000000000000000000000000000000000000000000000010000000000000000000000000000000000000000000000000000000001a7daf10000000000000000000000000000000000000000000000000000000000000000",
          "blockHash": "0x540df296734dc4447928acf68acc3e194762d151cbe301869dc2dc3d6a9b9394",
          "blockNumber": "0x14b1834",
          "blockTimestamp": "0x67946a04",
          "transactionHash": "0x0509a677eab4b0d8c53f17feabc3ec698b69d7576a86d6feb47ef1da29213267",
          "transactionIndex": "0x0",
          "logIndex": "0x1",
          "removed": false
        }
      ],
      "logsBloom": "0x00000000000000000000000000000000000000000000000000000000000000000000000000000000004000000000000000000000000002000000400000100000000000000000000000000008000000000000000000000000100000000040000000000000000000000000002000000100000800000000000000000010000000000000000000000000000000000000000000000000000000000000000000000000000000000000200040000000060000000000000000000000000000000000001000000002000000200000000000001000010000000000001000000000000000000000000000000040000000000000000000000000000002000000000100000000",
      "type": "0x2",
      "transactionHash": "0x0509a677eab4b0d8c53f17feabc3ec698b69d7576a86d6feb47ef1da29213267",
      "transactionIndex": "0x0",
      "blockHash": "0x540df296734dc4447928acf68acc3e194762d151cbe301869dc2dc3d6a9b9394",
      "blockNumber": "0x14b1834",
      "gasUsed": "0x25753",
      "effectiveGasPrice": "0x7e6a864",
      "blobGasPrice": "0x46dc18",
      "from": "0x3c44cdddb6a900fa2b585dd299e03d12fa4293bc",
      "to": "0x7e0c07eeabb2459d70dba5b8d100dca44c652ac0",
      "contractAddress": null
    }
  ],
  "libraries": [],
  "pending": [],
  "returns": {},
  "timestamp": 1770113466880,
  "chain": 1,
  "commit": "d9030e5"
}