{
  "transactions": [
    {
      "hash": "0x560a7028cdcd4c8679ea519e55c9e75f280b29783a2dc31d6770e59885b7ae55",
      "transactionType": "CALL",
      "contractName": null,
      "contractAddress": "0xe217c2f4fe03f93fc8a483b9c0d262771e26dab8",
      "function": "createBroker(bytes32)",
      "arguments": [
        "0x16ba38411fff8065c2c74141d77f15442001a393bf2254b1284afca497ba1a74"
      ],
      "transaction": {
        "from": "0xf39fd6e51aad88f6f4ce6ab8827279cfffb92266",
        "to": "0xe217c2f4fe03f93fc8a483b9c0d262771e26dab8",
        "value": "0x0",
        "input": "0x26f4f12316ba38411fff8065c2c74141d77f15442001a393bf2254b1284afca497ba1a74",
        "nonce": "0x126c",
        "chainId": "0x1"
      },
      "additionalContracts": [],
      "isFixedGasLimit": false
    },
    {
      "hash": null,
      "transactionType": "CALL",
      "contractName": null,
      "contractAddress": "0x98c23e9d8f34fefb1b7bd6a91b7ff122f4e16f5c",
      "function": "transfer(address,uint256)",
      "arguments": [
        "0x64320fb0e3b9DCE0a433cc0B0Aa12B03c7a88d15",
        "9999999999998"
      ],
      "transaction": {
        "from": "0xf39fd6e51aad88f6f4ce6ab8827279cfffb92266",
        "to": "0x98c23e9d8f34fefb1b7bd6a91b7ff122f4e16f5c",
        "value": "0x0",
        "input": "0xa9059cbb00000000000000000000000064320fb0e3b9dce0a433cc0b0aa12b03c7a88d15000000000000000000000000000000000000000000000000000009184e729ffe",
        "nonce": "0x126d",
        "chainId": "0x1"
      },
      "additionalContracts": [],
      "isFixedGasLimit": false
    },
    {
      "hash": null,
      "transactionType": "CALL",
      "contractName": null,
      "contractAddress": "0x64320fb0e3b9dce0a433cc0b0aa12b03c7a88d15",
      "function": "modifyPosition(bytes32,int256,int256)",
      "arguments": [
        "0x6b63870a1260fcb989a7459c5e537d9f8a1f76890dd88927f105de03d513b33c",
        "0",
        "200000000000"
      ],
      "transaction": {
        "from": "0xf39fd6e51aad88f6f4ce6ab8827279cfffb92266",
        "to": "0x64320fb0e3b9dce0a433cc0b0aa12b03c7a88d15",
        "value": "0x0",
        "input": "0x1b89f3d46b63870a1260fcb989a7459c5e537d9f8a1f76890dd88927f105de03d513b33c00000000000000000000000000000000000000000000000000000000000000000000000000000000000000000000000000000000000000000000002e90edd000",
        "nonce": "0x126e",
        "chainId": "0x1"
      },
      "additionalContracts": [],
      "isFixedGasLimit": false
    }
  ],
  "receipts": [
    {
      "status": "0x1",
      "cumulativeGasUsed": "0x53eb3",
      "logs": [
        {
          "address": "0xe217c2f4fe03f93fc8a483b9c0d262771e26dab8",
          "topics": [
            "0xddf252ad1be2c89b69c2b068fc378daa952ba7f163c4a11628f55a4df523b3ef",
            "0x0000000000000000000000000000000000000000000000000000000000000000",
            "0x000000000000000000000000f39fd6e51aad88f6f4ce6ab8827279cfffb92266",
            "0x00000000000000000000000064320fb0e3b9dce0a433cc0b0aa12b03c7a88d15"
          ],
          "data": "0x",
          "blockHash": "0xc936c3145528b9e9456c7bfdc6556d38582083f0c7a3a18bf6b57ac86f48c931",
          "blockNumber": "0x173c14a",
          "blockTimestamp": "0x697f8720",
          "transactionHash": "0x560a7028cdcd4c8679ea519e55c9e75f280b29783a2dc31d6770e59885b7ae55",
          "transactionIndex": "0x0",
          "logIndex": "0x0",
          "removed": false
        },
        {
          "address": "0xe217c2f4fe03f93fc8a483b9c0d262771e26dab8",
          "topics": [
            "0xc418c83b1622e1e32aac5d6d2848134a7e89eb8e96c8514afd1757d25ee5ef71",
            "0x00000000000000000000000064320fb0e3b9dce0a433cc0b0aa12b03c7a88d15",
            "0x000000000000000000000000f39fd6e51aad88f6f4ce6ab8827279cfffb92266"
          ],
          "data": "0x00000000000000000000000064320fb0e3b9dce0a433cc0b0aa12b03c7a88d15",
          "blockHash": "0xc936c3145528b9e9456c7bfdc6556d38582083f0c7a3a18bf6b57ac86f48c931",
          "blockNumber": "0x173c14a",
          "blockTimestamp": "0x697f8720",
          "transactionHash": "0x560a7028cdcd4c8679ea519e55c9e75f280b29783a2dc31d6770e59885b7ae55",
          "transactionIndex": "0x0",
          "logIndex": "0x1",
          "removed": false
        }
      ],
      "logsBloom": "0x00000000000000000000100080000000000000000000000000000000000000000000000000000000000000000000000040020200000000000000000000000000000000000000000000000008000000000000000000000100000000000000000000000000020000000000000100000800000000000000000000000010000000000000000000000000000000000000000000000000000000000000000000000000000000000000000000000000000100000000000000000000000000000000000000000002000000200000000000000000000000002000000000000000000020000000000000004000000000000000000000000000002000000000000000000000",
      "type": "0x2",
      "transactionHash": "0x560a7028cdcd4c8679ea519e55c9e75f280b29783a2dc31d6770e59885b7ae55",
      "transactionIndex": "0x0",
      "blockHash": "0xc936c3145528b9e9456c7bfdc6556d38582083f0c7a3a18bf6b57ac86f48c931",
      "blockNumber": "0x173c14a",
      "gasUsed": "0x53eb3",
      "effectiveGasPrice": "0x25b128bb",
      "blobGasPrice": "0x1",
      "from": "0xf39fd6e51aad88f6f4ce6ab8827279cfffb92266",
      "to": "0xe217c2f4fe03f93fc8a483b9c0d262771e26dab8",
      "contractAddress": null
    }
  ],
  "libraries": [],
  "pending": [],
  "returns": {},
  "timestamp": 1769977791633,
  "chain": 1,
  "commit": "bfc1193"
}